:020000040800F2
:10000000B1AA010000000000000000000000000094
:1000100000000000000000000000000000000000E0
:1000200000000000000000000000000000000000D0
:1000300000000000000000000000000000000000C0
:1000400000000000000000000000000000000000B0
:1000500000000000000000000000000000000000A0
:100060000000000000000000000000000000000090
:100070000000000000000000000000000000000080
:100080000000000000000000000000000000000070
:100090000000000000000000000000000000000060
:1000A0000000000000000000000000000000000050
:1000B0000000000000000000000000000000000040
:1000C0000000000000000000000000000000000030
:1000D0000000000000000000000000000000000020
:1000E0000000000000000000000000000000000010
:1000F0000000000000000000000000000000000000
:1001000000000000000000000000000000000000EF
:1001100000000000000000000000000000000000DF
:1001200000000000000000000000000000000000CF
:1001300000000000000000000000000000000000BF
:1001400000000000000000000000000000000000AF
:100150000000000000000000000000007370043088
:10016000170500001305C5FF8545F605637BB5003F
:1001700089816378B500170500001305C5002E9529
:1001800002859302002073A0027D970200009382F3
:1001900062E773907230970200009382E246739098
:1001A000C27E73E0C07E970200009382A23D7390EE
:1001B0005230970100189381E16A178100181301EA
:1001C00061E4171500001305E5C597050018938530
:1001D00065E317060018130666E963FAC500832273
:1001E000050023A0550011059105E3EAC5FE17059A
:1001F00000181305A5E7970500189385A5F0637708
:10020000B500232005001105E36DB5FE73F0023241
:10021000171500001305E59697100000E78000927F
:1002200097100000E780609997000000E780E02FBA
:100230000145814597100000E780808B171300006F
:100240006700C39001A073E00232828073F0023233
:0402500082800000A8
:100280000A50726F6772616D2068617320657869CA
:10029000746564207769746820636F64653A000050
:1002A000307800006E6D690A0000000074726170A1
:1002B0000A000000B71702409843B706FFE0B106F6
:1002C0001367170098C3D843758FD8C39843B706F0
:1002D000F7FEFD16758F98C39843B706FCFFFD1611
:1002E000758F98C3D843B70601DFFD16758FD8C345
:1002F00023A607029843B706F7EAFD16758F98C341
:100300003707FF0098C794434167D98E94C393077A
:10031000F7FF3717024014431396E60063440600C4
:10032000FD17F5FBB717024098439316E70063C328
:10033000060001A0D843B706C4DFFD16D8C3D843D2
:10034000D8C3D84313670740D8C3D843758FD8C3E1
:10035000D843B7062920558FD8C3D857BD76758F97
:10036000D8D7D857C166938616F1558FD8D79843FA
:10037000B7060004558F98C3B717024098439316E9
:100380004700E3DD06FE9843B7060010558F98C37B
:10039000B7170240984393162700E3DD06FE984303
:1003A000B7060001558F98C3B717024098439316BC
:1003B0006700E3DD06FED843719BD8C3D8431367BB
:1003C0002700D8C3371702405C43A18BF5DF82803A
:1003D0007971B705000822D47D462A8493850528C3
:1003E0000A8506D697100000E780C08379468A8583
:1003F000094597100000E7804084A28509459700D1
:100400000000E780E001B705000805469385052B4D
:10041000094597100000E780408201A079714ECE17
:10042000AE89B705000809469385052A22D426D24D
:100430004AD052CC56CA06D62A8971449700000089
:10044000E780A07F3D4AA54AF154B3178A00B3F76D
:100450003701B3D7870093F7F70F63ECFA0293875E
:10046000070393F7F70F05469305F1004A857114CA
:10047000A307F10097000000E780207CE31794FCBD
:10048000B250225492540259F249624AD24A45610A
:10049000828093877703F1B7B70700D223800700E4
:1004A000A38507001205B71700D23E9563E3A700A6
:1004B000828023A00700C107D5BFF327503093F7F0
:1004C00007FC93E73700739057308280B705000828
:1004D000411115469385452A054506C6970000003B
:1004E000E780A075054597000000E780A0EE411168
:1004F0009347F5FF22C406C6139747012A8409E7EC
:1005000097000000E780C0FCB705000815469385FA
:10051000C52A054597000000E780207222859700D4
:100520000000E78020EB411106C697000000E7803D
:10053000A0D81305700597000000E78020F697000B
:100540000000E780C0F7B2404101170300006700D8
:10055000C3CF828000000000000000000000000007
:10056000000000000000000000000000000000008B
:10057000000000000000000000000000000000007B
:100580005D7106C012C216C41AC61EC82ACA2ECC75
:1005900032CE36D03AD23ED442D646D872DA76DC63
:1005A0007ADEFEC0F322103496C0F322003096C2E9
:1005B000F322407C96C4732520348A85970000007E
:1005C000E78020F386427390123496427390023093
:1005D000A6427390427C82401242A2423243C243FE
:1005E0005245E245724682561257A2573258C258B7
:1005F000525EE25E725F864F6161730020300000E0
:1006000000000000731101345D7106C012C216C4EF
:100610001AC61EC82ACA2ECC32CE36D03AD23ED402
:1006200042D646D872DA76DC7ADEFEC073D0E87E37
:100630007350F97E73D0B97EF390D07E737004301E
:10064000B6427390427CA6427390123496427390E5
:10065000223482401242A2423243C2435245E24512
:10066000724682561257A2573258C258525EE25E04
:10067000725F864F61617311013473002030AA826A
:100680002143B68363C566009102B38363403D4E48
:100690008A03331E7E00134EFEFF83AE0200B3FEBC
:1006A000CE0133EFC500331F7F00B3EEEE0123A070
:1006B000D2018280F18D2D8E4206D18D0CC98280AF
:1006C000AA82370301001303F3FFB3F5650023AAE1
:1006D000B2008280AA82370301001303F3FFB3F54F
:1006E000650023A6B2008280AA8203A582008280D0
:1006F000B712024003A3C2013363A30023AE62001A
:100700008280B712024003A382013363A30023ACAB
:1007100062008280711106C02A8641459700000060
:10072000E78040FDB712004023A4C20223A6B20214
:1007300023A80200824011018280B712004003A565
:10074000020119C123A802008280711106C0B712EC
:100750000040054323A0620097000000E78020FED0
:1007600065DD23A00200824011018280711106C064
:10077000314597000000E78000F937150140130567
:100780000580814509468146214797000000E780A2
:1007900040EF8506E39BE6FE37150140130505C0D3
:1007A0008145094681460D4797000000E78060EDCE
:1007B0008506E39BE6FE824011018280711106C02E
:1007C000371501401305058081451306F00F97008A
:1007D0000000E78060EE37150140130505C089452C
:1007E000094697000000E78020ED3715014013050A
:1007F0000580A14501468146214797000000E7801A
:1008000040E88506E39BE6FE97000000E78040286D
:10081000371501401305058097000000E78000EDC3
:100820001D81058975F597000000E7804028371580
:100830000140130505C08145094697000000E78087
:10084000A0E737150140130505808145094681461B
:10085000214797000000E780C0E28506E39BE6FEA3
:10086000824011018280711106C0AA8897000000A1
:10087000E78000F597000000E7808021468597001B
:100880000000E780A02497000000E78040EC97007C
:100890000000E780C021014597000000E7800023A9
:1008A000824011018280711106C02A8897000000E1
:1008B000E78000F137150140130505C08545054661
:1008C00097000000E78040DF97000000E78020E706
:1008D00097000000E780C01B428597000000E7807A
:1008E000E01E97000000E78080E697000000E780A8
:1008F000001C014597000000E780401D37150140AE
:10090000130505C08145054697000000E780C0DA61
:10091000824011018280711106C097000000E780BB
:1009200000E31305800397000000E78000F49700C0
:100930000000E780C0E1014597000000E780E0F299
:1009400097000000E780A0E0054597000000E780E1
:10095000C0F197000000E78080DF19459700000094
:10096000E780A0F097000000E78060DE3D4597003B
:100970000000E78080EF97000000E78040DD5145F0
:1009800097000000E78060EE97000000E78020DC21
:100990000145E14597000000E78000D813055004A9
:1009A00097000000E78060F01305D0049700000076
:1009B000E780A0EF1305D00497000000E780E0EE89
:1009C0001305100497000000E78020EE13051002C5
:1009D00097000000E78060ED13051002970000000B
:1009E000E780A0EC1305100297000000E780E0EB21
:1009F0001305100297000000E78020EB1305500458
:100A000097000000E78060EA1305D004970000001B
:100A1000E780A0E91305D00497000000E780E0E834
:100A20001305100497000000E78020E8130510026A
:100A300097000000E78060E71305100297000000B0
:100A4000E780A0E61305100297000000E780E0E5CC
:100A50001305100297000000E78020E58240110195
:100A60008280711106C01305B0069305703E970091
:100A70000000E78060CA97000000E78060CF970021
:100A80000000E78080E9824011018280711106C078
:100A900037150140130505C0914511469700000028
:100AA000E78080C1824011018280711106C0371534
:100AB0000140130505C08145114697000000E780FD
:100AC000A0BF824011018280711106C01377F50F1B
:100AD0003715014013050580BA851306F00F9700FE
:100AE0000000E78060BD8240110182809700000015
:100AF000E78060F701A037150140130505C0954553
:100B00001D4697000000E78020BB37150140130504
:100B1000058081451306F00F97000000E78020C391
:100B200037150140130505801306F00F8505970062
:100B30000000E78060B8CDB7AA858146014601452F
:100B40001703000067008314411122C406C69707EB
:100B500000009387671C2A8491C781459700000095
:100B6000E780801B970700009387872B88431C55DD
:100B700091C38297228597000000E780A0854111EC
:100B8000970700009387072A22C417040000130464
:100B900064291D8C26C206C60984BE8411E4B240B5
:100BA00022449244410182807D1493172400A69729
:100BB0009C438297E5B741119707000093878726EA
:100BC00022C4170400001304E4251D8C26C24AC069
:100BD00006C6098481443E89639684029707000013
:100BE00093874724170400001304C4231D8C098431
:100BF00081443E89639F8400B2402244924402496A
:100C00004101828093972400CA979C438504829770
:100C1000E1B793972400CA979C4385048297D9BF74
:100C20002A8309CA83830500230073007D16050308
:100C300085056DFA828097F7FF179387A742B286E2
:100C40002E86AA85884317030000670083004111A0
:100C500022C42A842E85B285368697F7FF1723AFE4
:100C6000074806C697000000E7808017FD57631904
:100C7000F50097F7FF17938767489C4391C31CC003
:100C8000B24022444101828097F7FF179387073EC5
:100C90009C432A8E8DE717F7FF171307673D97F7D9
:100CA000FF1723A5E73C17F5FFF71305A535BA870E
:100CB00019C51C4117F5FF172320F544BA87D843FF
:100CC0007D487D556347E804630E0E0203A887083C
:100CD0006301080493182700C29823A0C8000323C7
:100CE000081005463316E6003363C300232068105E
:100CF00023A0D80889466317DE0083264810558E46
:100D00002322C810930617000A07D4C3BA978CC7CA
:100D100001458280797152CC56CA5AC85EC606D641
:100D200022D426D24AD04ECE62C42A8B2E8A97FA7B
:100D3000FF17938AAA33854B03A40A0011C84440C5
:100D4000832984081389F4FF8A04A294635E09004E
:100D5000B250225492540259F249624AD24A424B4A
:100D6000B24B224C45618280630E0A0063950900F4
:100D70007D19F114E1BF93172900CE9783A70708C7
:100D8000E39847FF5840DC407D1763182703232270
:100D90002401F9DF032C44006388090083A60910AD
:100DA00033972B01F98E89EE8297584083A70A006A
:100DB000E31487F9E30EF4FA41B723A20400D1BF8C
:100DC00093162900CE968C4283A64910758F01E7B1
:100DD0005A858297D9BF2E858297C1BF411106C619
:100DE00022C4814601478147930800047300000034
:100DF0002A84635A05003304804097000000E7808E
:100E0000600100C17D542285B240224441018280AC
:0C0E100097F7FF1793870725884382801F
:040E1C0000000020B2
:100E200000000000000000000000000000000000C2
:100E300000000000000000000000000000000000B2
:100E400000000000000000000000000000000000A2
:100E50000000000000000000000000000000000092
:100E60000000000000000000000000000000000082
:100E70000000000000000000000000000000000072
:080E800000000020000000004A
:040000050800015C92
:00000001FF
